:020000040800F2
:10000000A09B0020E5020008ED020008EF020008B6
:10001000F1020008F3020008F502000800000000E9
:10002000000000000000000000000000F7020008CF
:10003000F902000800000000FB020008E92800089F
:10004000FF020008FF020008FF020008FF0200088C
:10005000FF020008FF02000819220008ED22000834
:10006000152300083D23000865230008FF0200084F
:10007000FF020008FF020008FF020008FF0200085C
:10008000FF020008FF020008FF020008FF0200084C
:10009000FF020008FF020008FF0200088D2300088D
:1000A000FF020008812A0008FF020008FF02000882
:1000B000B12A0008DD2A00080D2B0008FF02000805
:1000C000FF020008FF020008FF020008FF0200080C
:1000D000FF020008B92F0008093000085930000855
:1000E00041220008FF020008FF020008FF0200088A
:1000F0009D2B0008FF020008FF020008FF02000815
:10010000FF020008FF0200083D2B0008FF02000864
:10011000FF020008FF020008FF0200086D2B000824
:10012000FF020008FF020008FF020008FF020008AB
:10013000FF020008FF020008FF020008FF0200089B
:10014000FF020008FF020008FF020008FF0200088B
:10015000FF020008FF020008FF020008FF0200087B
:10016000FF020008FF020008FF020008FF0200086B
:10017000FF020008FF020008FF020008FF0200085B
:10018000FF020008FF02000800F002F800F09BF8F0
:100190000AA090E8000C82448344AAF10107DA45E2
:1001A00001D100F090F8AFF2090EBAE80F0013F099
:1001B000010F18BFFB1A43F00103184768950000B0
:1001C00088950000103A24BF78C878C1FAD8520741
:1001D00024BF30C830C144BF04680C6070470000C1
:1001E0000023002400250026103A28BF78C1FBD840
:1001F000520728BF30C148BF0B6070476E2900F01E
:100200007F85702901F0D980662908F00C81652965
:1002100008F00981672908F006816129AFF30080A1
:1002200003681B0A28BF41F08001692900F0EE81B4
:10023000642900F0EB81752900F0E8816F2901F055
:100240006680782901F0A580E92901F00180E42980
:1002500000F0FE87F52900F0FB87EF2901F06380AD
:10026000F82901F0A4800368DB0928BF41F0800170
:10027000632901F08781732901F08C81E32901F062
:100280009781F32901F09C81002070471FB508F089
:100290005EF89DE8030000F069FC00F047FC0400F4
:1002A0000020002107F05CFA401C60600020002163
:1002B00007F06CFAE06000F023FC1FBD10B50020D1
:1002C00001F086F810BD01F074FA1146FFF7DEFF69
:1002D00007F00AFA01F096FA03B4FFF7EFFF03BC48
:1002E00001F060FA0948804709480047FEE7FEE749
:1002F000FEE7FEE7FEE7FEE7FEE7FEE7FEE7FEE7D6
:1003000004480549054A064B704700007D2900084E
:1003100089010008A00B0020A09B0020A08B0020DA
:10032000A08B002010B500F001FC001D10BD00BF27
:100330003174000070B5064600F0F4FB056806F164
:100340000B0020F00704B4429CBF002070BD2B4678
:100350006A68BAB11068A04210D304F1080188425B
:100360003CBF5068586007D351681019416011684C
:10037000091B016058601460101D70BD134652685F
:10038000002AE7D12146284600F0DCFB0028DED118
:1003900070BD70B50446051F00F0C4FB0068002C5A
:1003A00014BF446870BD002C18BFAC423CBF20464F
:1003B0006468F8D301680A18AA4218BF456003D1DF
:1003C0002A6805461144016028684119A1421CBFF2
:1003D0006C6070BD6168696021680844286070BD08
:1003E00070B50D460646041F00F09CFBD0F800C017
:1003F000C5B1E6B105F10B0020F00703AB423CBFED
:10040000002070BD2068984238BFDCF8042013D368
:10041000C11A08292FD3E01840F8041B2360FFF706
:10042000B8FF28E03046FFF7B4FF002070BD284633
:10043000BDE87040FFF77EBF002A18BFA2423CBF54
:1004400094465268F8D30119914216D111680844B4
:10045000984212D3C11A08293CBF2060506808D3C3
:100460005168E0184160216812681144C91A01609E
:100470002360CCF80400201D70BD181FFFF75AFF41
:10048000050007D021680A1F211D00F04FFA201D2A
:10049000FFF77FFF284670BD53EA020C00F0698029
:1004A0002DE9F04B4FF00006002B1FBFB3FA83F588
:1004B00003FA05F424FA05F65E4012BF1643B2FAB9
:1004C00082F502FA05F4C5F120051EBF22FA05FCEB
:1004D00044EA0C04203556EA044C4FEA144418BF91
:1004E000641C4FF000084FF00009904271EB030CC0
:1004F00039D3002919BFB1FA81F701FA07F6B0FA2A
:1005000080F700FA07F6C7F120071EBF20FA07FCA4
:1005100046EA0C062037B6FBF4FCA7EB0507103FB4
:1005200007F01F0BCBF120060CFA0BFB2CFA06F69A
:1005300044BFB3460026202FA4BF5E464FF0000BF9
:100540005BEA060C08BF4FF0010B19EB0B09ABFB84
:10055000027C48EB0608C01B06FB02CC0BFB03CC5D
:1005600071EB0C01C1E70B46024641464846BDE827
:10057000F08B13B54FF000004FF00001AFF3008097
:10058000BDE81C40704700007CB51D4616460C00B7
:10059000009001D02044401E074B7B442A46694608
:1005A0000190304600F0D5FD05461CB1002069469B
:1005B00000F0E2FD28467CBDE50B000070B5044666
:1005C00085690068C10601D5302600E02026C007F5
:1005D00007D070BDD4E9012130469047206A401C05
:1005E00020626D1EF6D570BD70B504468569007831
:1005F000C00707D170BDD4E9012120209047206AAF
:10060000401C20626D1EF6D570BD00002DE9F04142
:100610000646002410687529314616A510D000F052
:10062000DBFA002802DA404213A507E031688A07A6
:1006300001D512A502E0490704D511A5012401E066
:1006400000F0D3FA00210A2206F1240709E0B0FBEA
:10065000F2FCB0FBF2F302FB1C0030307854184679
:10066000491C0028F3D123462A463046BDE8F04114
:1006700000F0EDBA000000002D0000002B0000008B
:10068000200000002DE9F05F894604464FF0000A83
:10069000DFF874B1FB44C0F820A02046E168884729
:1006A000002874D0252806D0D4E901219047206A7B
:1006B000401C2062F1E700265F462046E16888473B
:1006C0002028054607DB312D05D2781910F8200CBB
:1006D00008B10643F1E7B00701D526F00406C4F8D7
:1006E0001CA00027C4F818A02A2D09D0284606F01F
:1006F000D1FF38B304EB8708303DC8F8185019E033
:1007000059F8041B204604EB87029161E168884791
:10071000012F054618D1E069002820DA26F02006CE
:100720001DE0D8F8180000EB800005EB40003038E1
:10073000C8F818002046E1688847054606F0AAFF79
:100740000028EED1012F0AD02E2D08D12046E168D5
:1007500088477F1C0546022F46F02006C4DBA069AF
:10076000002803DA404246F00106A061F00701D0FC
:1007700026F010066C2D0BD0682D09D04C2D39D0E9
:100780006A2D35D0742D35D07A2D33D016E038E06F
:10079000E1682F4620468847B842054609D16C2FAC
:1007A00026D04FF48060E16806432046884705461E
:1007B00004E06C2F1AD04FF4807006430DB3A5F1FE
:1007C0004100192802D8203546F400664A462946D9
:1007D000204626604E46FFF711FD80B101280BD060
:1007E000F61D26F0070000F1080956E74020E4E76F
:1007F0008020D8E70020D6E706F104094DE7284617
:1008000052E7206ABDE8F09F948D00002DE9F04189
:10081000074615460E461020FFF78CFD04000AD04F
:100820006760C4E9026500F085F901682160046031
:100830000020BDE8F0810120FBE7401ECAB210F89D
:10084000011F8A4202D00029F9D10020704740EAF6
:10085000010310B59B070FD1042A0DD310C808C996
:10086000121F9C42F8D020BA19BA884201D901203F
:1008700010BD4FF0FF3010BD1AB1D30703D0521C8A
:1008800007E0002010BD10F8013B11F8014B1B1BC5
:1008900007D110F8013B11F8014B1B1B01D1921E2F
:1008A000F1D1184610BD40EA0103024630B59B075E
:1008B00010D14FF0013400E008C208C91D1B9D4350
:1008C00015EAC41FF8D013F0FF0102F8011B0DD088
:1008D0001B0AF8E711F8013B002B02F8013B05D099
:1008E00011F8013B002B02F8013BF3D130BD10B5EC
:1008F000431C02E010F8011B71B18107FAD14FF0DF
:10090000013202C88C1A8C4314EAC211F9D0C01A01
:100910000A0603D0C01E10BDC01A10BD0A0401D0C3
:10092000801E10BD0902FCD0401E10BD10B5203A3B
:10093000C0F00B80B1E81850203AA0E81850B1E898
:100940001850A0E81850BFF4F5AF5FEA027C24BF4E
:10095000B1E81850A0E8185044BF18C918C0BDE845
:1009600010405FEA827C24BF51F8043B40F8043B0E
:1009700008BF7047D20728BF31F8023B48BF11F8C3
:10098000012B28BF20F8023B48BF00F8012B70471D
:100990004FF000020429C0F0128010F0030C00F0A8
:1009A0001B80CCF1040CBCF1020F18BF00F8012B26
:1009B000A8BF20F8022BA1EB0C0100F00DB85FEAF4
:1009C000C17C24BF00F8012B00F8012B48BF00F8C0
:1009D000012B70474FF0000200B51346944696462F
:1009E000203922BFA0E80C50A0E80C50B1F1200142
:1009F000BFF4F7AF090728BFA0E80C5048BF0CC0F0
:100A00005DF804EB890028BF40F8042B08BF70474D
:100A100048BF20F8022B11F0804F18BF00F8012BBF
:100A2000704710B5044610F0030F08BF11F0030F14
:100A300040F015804FF0013E121FC0F20E8051F8B9
:100A4000043BA3EB0E0C2CEA030C1CEACE1C08BFE3
:100A500040F8043BF0D0A1F1040102F10402521E5F
:100A600008DB11F8013B002B00F8013BF7D11146E0
:100A7000FFF78EFF204610BD4FF0013C50F8042BCD
:100A800051F8043B9A4221D1A2EB0C03934313EAA1
:100A9000CC1317D150F8042B51F8043B9A4215D1CE
:100AA000A2EB0C03934313EACC130BD150F8042BA5
:100AB00051F8043B9A4209D1A2EB0C03934313EA89
:100AC000CC13DBD04FF00000704700BFD01A01BA42
:100AD000B1FA81F101F0180122FA01F0CB40C1F125
:100AE0002001DBB2C0B2C01A2CFA01F3D11A914333
:100AF00011EAC311E6D17047704770477047000094
:100B000070B5064C7C44064D7D4403E020682044CB
:100B10008047241DAC42F9D170BD0000688D0000F3
:100B2000848D000000487047440B00200048704747
:100B30005C0B002000487047740B00207047704722
:100B40007047704738B504460A4600206946AFF33F
:100B50000080002808BF38BD02460099204600F0FA
:100B600067FC012038BD012000F0C5BDF8B5AFF32A
:100B70000080054600200C46102000BF0646A8193C
:100B8000A0420DD9324669460020AFF3008007002D
:100B900008BF00F0B0FD0098A04218BF0546C41978
:100BA000FFF7C0FF05600746F01D20F0070046195B
:100BB000284600F00AF8B44208BFF8BDA21B31462F
:100BC0003868BDE8F84000F033BC00210160C0E99E
:100BD000011070471020704709684A0501D540B2DE
:100BE0007047C905FCD500B2704709684A0501D5B0
:100BF000C0B27047C905FCD580B2704770B50C46CD
:100C00000546012A05D02878800600D5EA69002328
:100C100002E0012305E05B1C934202D2E05C002865
:100C2000F9D1A869E618C01AA861286A1844286290
:100C30002846FFF7C3FC04E0D5E9012114F8010BB5
:100C40009047B442F8D32846FFF7CEFC70BD2DE99B
:100C5000F0470D4699469246044600F12408016883
:100C6000880604D5E06921F01001216000E0012030
:100C7000A84201DD471B00E00027A1697A1902EBB9
:100C80000900081AA0612078C00602D42046FFF7A8
:100C900095FC002608E0D4E901211AF806009047E7
:100CA000206A401C761C20624E45F4DB2078C0068A
:100CB0000AD52046FFF782FC06E0D4E90121302066
:100CC0009047206A401C2062381EA7F10107F4DC1F
:100CD00007E0D4E9012118F805009047206A401C7C
:100CE0002062281EA5F10105F3DC2046FFF77CFCFD
:100CF0002078000602D50220BDE8F0870120FBE73E
:100D000011680268006A530501D508700AE0D3052E
:100D100001D5088006E0130603D5C217C1E9000219
:100D200000E008600120704770472DE9FF4F0C4636
:100D30001E464FF0FF378BB0D2E90001DDF860802E
:100D40000A908A46C1F30A5505B93D460021084676
:100D50004FF00000BAF1000F00F4400005DA00EB9C
:100D600080004FF4400101EA50004FEA9059B9F178
:100D7000010F00DDB9460A9850EA4A000ED044F649
:100D80001050A5F2FF3545432F14B8F1000F1ED0C7
:100D90007542291E1EDDC9F100021CE0B8F1010FE9
:100DA0004FF0000001D0302103E0F24305E0215470
:100DB000401CB042FBDB30460022002121540B993D
:100DC000C1F80880C1E900200FB0BDE8F08FBD1B5D
:100DD0006D1CDEE74A4600DA694206A800F0F4FB23
:100DE00006AB93E8070003AB83E8070050460A9977
:100DF00000F0A2FD8DE80700A0F500501F3800901C
:100E00000398002D0ADD42F21F014A4608440023E0
:100E100003A90390684601F00BF809E0A0F5005023
:100E20004A461F38002303A90390684601F015F8CD
:100E30008DE807000004000C03D04FF0FF3041089C
:100E400000E01046B8F1000F03D0002200921546D2
:100E50001EE0751E05D400F005FB303262556D1E94
:100E6000F9D5B3460122084302D000227F1C04E0DA
:100E70002078302801D100227F1E002A099784D0D3
:100E80001DE0112D07DA00F0EDFA303262556D1CCD
:100E900050EA0102F5D1084302D00098C8B10EE033
:100EA0000021681E05E0235C625C63542254401EEE
:100EB000491C8142F7DBAB46A81B401E099000206D
:100EC00004F80B000B98099AC0F80880C0E9002BC1
:100ED0007AE711264FF0000857E72DE9F04F8846D2
:100EE0000446D21D22F0070191B0D1E90001CDE9FD
:100EF0000A0106F0E7FA02460B98C00F01D02D2038
:100F000007E02068810701D52B2002E0202101EABB
:100F1000C000032A099001D0072A05DB0346414699
:100F2000204600F0E5FA0BE12078800601D5E06963
:100F300000E00620B8F1650F814606D0B8F1660FD3
:100F400018D0B8F1670F70D131E00020B9F1110F5E
:100F5000009001DB112301E009F101030AAA01A9B4
:100F60000CA8FFF7E2FEDDE90C70002609F101058F
:100F7000834647E001204B4600904FF000470AAA05
:100F800001A90CA8FFF7D1FEDDE90DB00C995D4673
:100F9000002610B909F101000D18B9EB050003D4C2
:100FA000C0F1FF3609F10105A5EB09002BE0B9F10D
:100FB000010F01DA4FF001090020B9F1110F009083
:100FC000484601DD112300E003460AAA01A90CA846
:100FD000FFF7ABFEDDE90C704D4600268346207816
:100FE00000070AD4AB4500DA5D4601A8012D04DDF7
:100FF000411911F8011C302907D04F4502DA17F1C9
:10100000040F04DA012082460FE06D1EEEE7002F88
:1010100002DCED1B3E4403E0781CA84200DD7D1C91
:10102000B81B00F1010A4FF000472078000703D4F5
:10103000AA4501DB4FF0FF3A0021B7F1004F0DF157
:1010400043088DF8431024D002202B23002F01DA0F
:101050007F422D230A21021EA0F1010000DC5FB1B6
:1010600097FBF1FC97FBF1F201FB1C7C17460CF19E
:10107000300C08F801CDEEE7A8F1010003702188DB
:10108000090501D5452100E06521A0F1010800F81E
:10109000011C09980FA9A1EB0807FF1D00B1012051
:1010A000411901EBEA70A1693844081A401EA06199
:1010B0002078C00602D42046FFF780FA099828B1AC
:1010C000D4E901219047206A401C20622078C006A4
:1010D00022D52046FFF772FA1EE0002E04DBB3454E
:1010E00002DD01A8805D00E03020D4E901219047B5
:1010F000206A401C2062761CAAF101005FEA000A07
:101100000AD1FFF713FDC0680168405CD4E90121F2
:101110009047206A401C2062281EA5F10105DCDCF6
:1011200007E0D4E9012118F8010B9047206A401C20
:101130002062381EA7F10107F3DC2046FFF754FABE
:10114000032011B041E6000001694A1C02610878E1
:10115000704700B58FB0CDE90131002105910549F7
:101160007944CDE9031011466846FFF78BFA0FB0BA
:1011700000BD0000E5FFFFFF0A6802F8010B0A60EE
:101180007047D1E900239A4202D2531C0B601070C1
:10119000704700002DE9FF5F15468A460446DFF8D8
:1011A000AC80F8440027D8E900103E46CDE9001095
:1011B00010E03AF816106A4602A800F077FA411CCF
:1011C00007D02178890603D5E269391891420DD8F4
:1011D0000744761C2078800602D5E069B84205DD18
:1011E000AE42E6DB3AF816000028E2D1A069C01B47
:1011F000A0612046FFF7E2F9D8E90010CDE9001020
:10120000002017E03AF818106A4602A800F04EFADB
:10121000B0F1FF3F81460BD000250DF1080B05E032
:10122000D4E901211BF8050090476D1C4D45F7D30B
:1012300008F10100B0428046E4DB206A38442062B5
:101240002046FFF7D1F9BDE8FF9F00009A82000019
:101250002DE9F0418046D21D22F007020025D2E997
:101260000002F52915A614D0011E72F1000106DA5C
:101270000023D0EB030063EB020211A608E0D8F8CC
:1012800000108B0701D50FA602E0490701D50EA675
:1012900001251146002408F1240704E000F0E2F8DB
:1012A00030323A55641C50EA0102F7D12B463246DF
:1012B00021464046BDE8F041FFF7C9BC00000000F0
:1012C0002D0000002B0000002000000030B40021A1
:1012D00000F1240408E002F00705D208303542EAA4
:1012E0004372DB086554491C52EA0305F3D10468D4
:1012F000002310A2250707D5A40600D421B1C46994
:1013000001230DA2641EC46130BCFFF7A0BC10B560
:10131000044621461068FFF768FC02462046BDE8F7
:1013200010400023D2E7D21D22F00701D1E90023AB
:10133000CCE700000000000030000000F0B40D46D3
:101340000188090502D5214C7C4402E01F4C7C44F5
:101350000E34002100F1240608E002F00F07120904
:10136000E75D42EA03721B097754491C52EA0307FE
:10137000F3D102780023120704D5702D06D009B1ED
:10138000022311342246F0BCFFF761BC0123103464
:10139000F8E770B504460D4621461068FFF725FCB6
:1013A000024629462046BDE870400023C6E7D21D0C
:1013B00022F00703D3E90023C0E70368126843F073
:1013C000200303600823C3610023B7E7FC8000000B
:1013D0002DE9F0410646FFF7ADFB8046454613E098
:1013E00016B1E068B0420ED120682860D4E901014E
:1013F000D8F8007088472046FEF7CBFFD8F80000E9
:10140000B842EBD100E025462C68002CE8D1BDE8BD
:10141000F08110B500F076F9BDE8104000F066B933
:10142000004870473C0B002000487047700B0020BC
:10143000034640688C46002818BF88423CBF0346DC
:101440004068F8D318681844884207D00CF10300AC
:1014500020F00700001D411A521A0146081D0A60BB
:10146000FEF797BF30B5B0F10A024FEA900E71F166
:1014700000034EEA817EB0EB0E0061EB91014FEA72
:10148000101E4EEA017E10EB0E0041EB11114FEAE7
:10149000102E4EEA016E10EB0E0041EB11214FEAC7
:1014A000104E4EEA014E10EB0E0041EB1141401878
:1014B00041F100014FEAD00040EA41704FEAD1010A
:1014C00010EB80054FEA810444EA907444EB010478
:1014D0006D1944EB0404521BA3414FF0000348BFB5
:1014E0000A3200D530BD401C41F1000130BD000082
:1014F0002DE9F0411F46044603260168072A01F43E
:10150000006004DB08B116A505E016A503E008B1EC
:1015100015A500E015A521F010002060A069C01EEF
:10152000A0610FB1401EA0612046FFF747F84FB100
:10153000D4E9012138469047206A401C2062C01C33
:10154000206206E0206AFAE7D4E9012115F8010BD0
:101550009047761EF8D22046FFF746F8BDE8F081A6
:101560004E414E006E616E00494E4600696E660047
:1015700010B5436913B1AFF3008001E0FFF73EFB04
:10158000012010BD127800F124010A7000224A7077
:101590000122EDE711684FF0FF32E9E710B543692A
:1015A00013B1AFF3008001E0FFF7F4FD012010BD9F
:1015B000128800F1240182840022C2840122EDE716
:1015C00011684FF0FF32E9E72DE9F04781461646F2
:1015D0008AB0354878440DC88DE80D00324878440B
:1015E000801C03AC0DC884E80D0041F69B30084414
:1015F000372190FBF1F290FBF1F5A5F1800501FB9D
:1016000012041B3C02D56442012000E00020DFF8F8
:1016100098A080460027FA44AAF1BE0A0EE0E0072F
:101620000AD03246684607EB470101230AEB8101E5
:1016300000F013FC8DE8070064107F1C002CEED135
:10164000194F7F44AE3F19E0E80715D007EB0410AF
:101650000DF1180A90E80E008AE80E00C068F0420A
:1016600001D1981908903246012306A903A800F079
:10167000F4FB03AB83E807006D10641C002DE3D17D
:101680004FF0010332466946B8F1000F03A802D0BB
:1016900000F0CEFB01E000F0E0FBC9E90001C9F871
:1016A00008200AB0BDE8F087147F000070B5164628
:1016B0000C460546FEF736FE036893F80101012843
:1016C00006D0FF2C0FD8185D68B101202C7070BDBA
:1016D000D3F807013246214603F207130344284694
:1016E000BDE8704018474FF0FF3070BD002801D0B2
:1016F00000F058B8704710B500F0B2F8BDE81040DF
:10170000FFF7F4BF10B5002102A000F08FF8012010
:1017100010BD00005349475056464E3A205075724E
:1017200065207669727475616C20666E2063616CE9
:101730006C656400AFF3008010B500F00EF801692D
:1017400019B100220261884701E08068804700F0FB
:1017500062F8000010B500F05EF870B500F04EF8C9
:1017600004680546A4B92020FEF7E4FD040011D06A
:10177000094900202C60C4E900010849A1602073D8
:10178000206160610649A06109B100F091F8E06153
:10179000204670BD00F03FF800000000551700081B
:1017A0000000000001491820ABBEFEE72600020041
:1017B00070477546FFF734FEAE460500694653464E
:1017C00020F00700854618B020B5FEF799FDBDE86A
:1017D00020404FF000064FF000074FF000084FF098
:1017E000000B21F00701AC46ACE8C009ACE8C00929
:1017F000ACE8C009ACE8C0098D46704700487047A6
:10180000780B002010B50446AFF300802046BDE8F9
:101810001040FEF761BD10B5002000F06EF8FEF735
:101820004DFDBDE810400120FFF7BCBF70B5054677
:101830000C460A2000E06D1C00F058F835B12878FD
:101840000028F8D102E0641C00F050F814B12078B0
:101850000028F8D1BDE870400A2000F047B8000029
:1018600010B5012805D0002103A0FFF7DFFF0120FC
:1018700010BD09A1F8E7000053494752544D454DAA
:101880003A204F7574206F662068656170206D6521
:101890006D6F7279000000003A2048656170206D1C
:1018A000656D6F727920636F727275707465640014
:1018B00010B58820FEF73EFD002801D00021017000
:1018C00010BD802902D808B1017809B10020704705
:1018D000012100F8081B704718B100F1080291427D
:1018E00001D00020704700210170704708B569469B
:1018F0008DF800000320ABBE08BD10B500F004F861
:10190000BDE81040FFF7F2BE10B5002102A0FFF7BE
:101910008DFF012010BD0000534947414252543A07
:101920002041626E6F726D616C207465726D696EBC
:101930006174696F6E0000005FEA400C08BF91F0AF
:10194000000F4FEA8C234FEAC12243EA51514FEA7C
:101950001C5018BF00F5F0404FEA300018BF41F0AE
:1019600000415FEA6C5C00F02980BCF1FF3F08BFDA
:1019700040F080407047130C06BF12044FF0100C6B
:101980004FF0000C130E04BF12020CF1080C130FE1
:1019900004BF12010CF1040C930F04BF92000CF170
:1019A000020CD30F04BF52000CF1010C11464FF092
:1019B0000002A0F11F00A0EB0C00704711F0004FD7
:1019C00008BF704731F000413FF4D5AF0B0C06BFA4
:1019D00009044FF0100C4FF0000C0B0E04BF09026D
:1019E0000CF1080C0B0F04BF09010CF1040C8B0F58
:1019F00004BF89000CF1020CCB0F04BF49000CF1AD
:101A0000010CCCF12003A0EB0C0022FA03F302FA44
:101A10000CF241EA030100F10100704720F07F4C15
:101A200080EA030023F07F47ACEB070303F57C5308
:101A300000F0004003F1FF032DE980494FEA154B08
:101A400009B44FEA144325EA0B4E24EA03480FF287
:101A5000042606EB132749083E785FEA320203FBAF
:101A60000667C7F5000707FB06F64FEA54374FEA4B
:101A7000D64606F1020607FB066CCCF1005C4FEA85
:101A80001C472CEA074C07FB06F40CFB06F504EB9D
:101A900015464FEA961634BF00204FF000404FEA3B
:101AA000D13706FB07FC4FEA1C4C0CFB0BF7D21B93
:101AB00003FB0CF761EB07010CFB0EF7B0EB0740E3
:101AC00072EB17420CFB08F734BFA2EB0742B2EBF4
:101AD000074261EB17414FEA0C444FEA910706FBBE
:101AE00007FC4FEA1C4C0CFB0BF7B0EBC74072EB4A
:101AF000573203FB0CF734BFA2EBC742B2EBC7422D
:101B000061EB57310CFB0EF7B0EBC70072EB57726D
:101B10000CFB08F734BFA2EBC702B2EBC70261EBC4
:101B20005771039F4FEA816141EA921104EBCC04A3
:101B30004FEAD1374FEA826206FB07FC42EA901275
:101B40004FEA80604FEA1C4C0CFB0BF7D21B03FBE7
:101B50000CF761EB07010CFB0EF7B0EB074072EBE3
:101B600017420CFB08F734BFA2EB0742B2EB074267
:101B700061EB17414FEA8C554FEA910704EB9C2427
:101B800006FB07FC4FEA1C4C0CFB0BF7B0EBC74005
:101B900072EB573203FB0CF734BFA2EBC742B2EB38
:101BA000C74261EB57310CFB0EF7B0EBC70072EB8D
:101BB00057720CFB08F734BFA2EBC702B2EBC702A7
:101BC00061EB577115EB4C254FEA816141EA9211A7
:101BD0004FEA82624FEAD13742EA901206FB07FCD5
:101BE00044F100044FEA80604FEA1C4C0CFB0BF7F9
:101BF000D21B03FB0CF761EB07010CFB0EF7B0EBFC
:101C0000074072EB17420CFB08F734BFA2EB074208
:101C1000B2EB074261EB174115EB1C154FEA81311E
:101C200041EA92414FEA823242EA90424FEA8030E2
:101C30004FEA0C7644F1000448EA03434EEA0B48AD
:101C40004FF0000EB2EB080C71EB030724BF6246A5
:101C500039464EEB0E0E4FF0000B00185241494131
:101C60004BEB0B0BB2EB080C71EB03077BF1000B9A
:101C700024BF624639464EEB0E0E4FF0000B0018A3
:101C8000524149414BEB0B0BB2EB080C71EB0307D4
:101C90007BF1000B24BF624639464EEB0E0E51EA33
:101CA000020718BF46F0010616EB0E7655F100024A
:101CB00054F1000103D5BDE88901BDE80088BDE805
:101CC0008901BDE80048B619524141EB0101A3F179
:101CD0000103704780807F7E7D7C7B7A7978777680
:101CE00076757473727171706F6E6E6D6C6C6B6AF9
:101CF0006A69686867666665646463636261616097
:101D0000605F5F5E5E5D5D5C5C5B5B5A5A59595813
:101D1000585757565655555554545353525252517D
:101D2000515050504F4F4F4E4E4D4D4D4C4C4C4BD3
:101D30004B4B4A4A4A49494948484847474747461A
:101D40004646454545444444444343434342424256
:101D500042414141002B9C4630D477002BD01CB52A
:101D60004FEA370703B44FF010004FF01001BAF1FB
:101D7000000F06D0BCF1000FDCBF40F0080040F0BF
:101D800008014FF000000FBCBDE810400BF1010B43
:101D9000BBF1010F08BF5FEA170722BF12F1010272
:101DA00011F101014FF0004143F1000300F0004048
:101DB00043EA00007047F9D35708D0E746EA0646E1
:101DC00013F1400F4FEA16461FDD13F1200FDFBF5E
:101DD00016430A46002120335B42BED0C3F12007E0
:101DE00046EA064602FA07F74FEA164646EA0706AB
:101DF000C3F1200722FA03F201FA07F721FA03F1EF
:101E00004FF0000342EA0702A7E746EA020646EA65
:101E100006464FEA164646EA0106BCBF46EA0646B3
:101E2000360C4FF000034FF000024FF0000194E732
:101E30002DE9804C9A46934670B491E8380007C863
:101E400031EA400C48BF34EA430C03D5FFF7E6FD06
:101E5000FFF780FFF0BCBDE8008C2DE9804C9A466E
:101E6000934670B491E8380007C810F0804F08BF5F
:101E700013F0804F03D100F005F8FFF76BFFF0BCC3
:101E8000BDE8008C20F07F4780EA030023F07F4C00
:101E900007EB0C03A3F57C5300F00040A3F1FE0315
:101EA00092F0000F00F0B38095F0000F00F0778003
:101EB0002DE901494FEA11404FEA144621EA004852
:101EC00000FB06FC24EA064708FB06F607FB08F8B9
:101ED00000FB07F718EB06484CEB164C4FEA124B89
:101EE00018EB07484FEA15464CEB174022EA0B4E19
:101EF0000BFB06FC25EA06470EFB06F607FB0EFE6B
:101F00000BFB07F71EEB064E4CEB164C4FF0000692
:101F10001EEB074E4CEB174B18EB0B0840F1000083
:101F200018EB0E0B58EB000840F100008F1A4FF031
:101F300000013CBFC943661B14BFB5EB040C002174
:101F40003CBFC943F61B4FEA17444EEA8E0E27EA00
:101F500004454FEA1C4704FB07622CEA074C05FBCB
:101F600007F70CFB05F604FB0CFC16EB074642EBEF
:101F7000174216EB0C4642EB1C421BEB060658EBD5
:101F80000202414146EA9E0601D5BDE80189B61923
:101F9000524141EB0101A3F10103BDE801894FEA80
:101FA00014454FEA114724EA054621EA074C05FB90
:101FB00007F406FB07F70CFB06F105FB0CFC11EB25
:101FC000074144EB17444FEA124711EB0C4144EB35
:101FD0001C4422EA074C05FB07F206FB07F70CFB43
:101FE00006F605FB0CFC16EB074642EB174216EB18
:101FF0000C4642EB1C456A1854F1000148BF70477B
:10200000B619524141EB0101A3F10103704795F06C
:10201000000F37D04FEA11424FEA144721EA024637
:1020200024EA074C02FB07F106FB07F70CFB06F45A
:1020300002FB0CFC14EB074441EB17414FEA154738
:1020400014EB0C4441EB1C4125EA074C02FB07F55D
:1020500006FB07F70CFB06F602FB0CFC16EB07462B
:1020600045EB174516EB0C4645EB1C42121951F196
:10207000000148BF7047B619524141EB0101A3F17D
:10208000010370474FEA14454FEA114724EA054619
:1020900021EA074C05FB07F106FB07F70CFB06F2EC
:1020A0004FF0000605FB0CFC12EB074241EB174119
:1020B00012EB0C4251EB1C4148BF7047921841EBA8
:1020C0000101A3F1010370470029816814BF41F0A9
:1020D000010121F001018160704700000849D1F839
:1020E0000423084B1A40D0E9003C43EA0C03D0E932
:1020F00002C04CEA000018431043C1F804037047C3
:1021000000200140E030FCFF10B4426891F804C0A8
:1021100022F4807222F040720B6842EA0C221A43C9
:10212000426082680C4B4C791A40D1E903C343EA00
:102130000C03D1F808C04CEA440C43EA0C031A43E0
:102140008260C26A097D22F47002491EC9B242EA65
:102150000151C16210BC7047FDF7FFC030B50546A4
:10216000A0F180408BB0B0F5903030D01A48854255
:1021700004BF0121480208D0A5F18040B0F591309C
:1021800007BF012188020BB030BD00F00DFB002419
:102190004FF44030CDE906404FF470600990089448
:1021A00006A8FFF79BFF01208DF814008DF805406D
:1021B0000494039400948DF8044069462846FFF780
:1021C000A3FF01212846FFF77FFF0BB030BD01219F
:1021D000080200F0E9FADAE70021014010B500F04A
:1021E0008BFB0B484FF47A710068B0FBF1F0411E95
:1021F000B1F1807F28BF10BD4FF0E0204161054A5A
:10220000F02182F8141D002181610721016110BDB8
:102210002C0000200FE000E010B5012000F000F9D4
:10222000002808BF10BD05480068002818BF804777
:102230000120BDE8104000F0EDB80000440500208A
:1022400010B54FF4806000F0EBF8274C38B1A06A6D
:10225000002818BF80474FF4806000F0DBF84FF48F
:10226000006000F0DDF838B1E06A002818BF804750
:102270004FF4006000F0CEF84FF4805000F0D0F83A
:1022800038B1206B002818BF80474FF4805000F011
:10229000C1F84FF4005000F0C3F838B1606B00286B
:1022A00018BF80474FF4005000F0B4F84FF480405E
:1022B00000F0B6F838B1A06B002818BF80474FF483
:1022C000804000F0A7F84FF4004000F0A9F8002883
:1022D00008BF10BDE06B002818BF80474FF40040D6
:1022E000BDE8104000F096B84405002010B502206B
:1022F00000F096F8002808BF10BD05484068002887
:1023000018BF80470220BDE8104000F083B80000ED
:102310004405002010B5042000F082F8002808BF12
:1023200010BD05488068002818BF80470420BDE81C
:10233000104000F06FB800004405002010B50820E0
:1023400000F06EF8002808BF10BD0548C0680028DE
:1023500018BF80470820BDE8104000F05BB80000BF
:102360004405002010B5102000F05AF8002808BFDE
:1023700010BD05480069002818BF80471020BDE83F
:10238000104000F047B800004405002010B52020A0
:1023900000F046F81E4C30B16069002818BF804735
:1023A000202000F037F8402000F03AF830B1A06962
:1023B000002818BF8047402000F02CF8802000F053
:1023C0002FF830B1E069002818BF8047802000F066
:1023D00021F84FF4807000F023F838B1206A00280B
:1023E00018BF80474FF4807000F014F84FF400706D
:1023F00000F016F8002808BF10BD606A002818BF5A
:1024000080474FF40070BDE8104000F003B80000B2
:10241000440500200149086070470000143C014059
:10242000034A0146002012680A4218BF0120704783
:10243000143C01402DE9F001002201255FF0030664
:10244000D1F800C005FA02F30CEA030C9C4537D121
:1024500007684FEA420C06FA0CF4A74307600F79AD
:10246000D0F8008007FA0CF747EA080707600F79F1
:10247000012F18BF022F17D1876827EA040787604A
:102480004F79D0F8088007FA0CF747EA0807876009
:10249000476827EA0303436043688F7907FA02F726
:1024A000BFB243EA07034360C36823EA0403C3607F
:1024B000CB7903FA0CF3D0F80CC043EA0C03C360E9
:1024C00002F10102102ABBD3BDE8F00170474B07AF
:1024D000DB0E9A40C90800EB8100016A4FF00F0C37
:1024E0000CFA03F399430162016A114301627047D8
:1024F00070B50446A0F1804082B0B0F5003008BF4E
:10250000012049D0A4F18040B0F5013008BF02207D
:1025100042D0A4F18040B0F5023008BF04203BD087
:10252000A4F18040B0F5033008BF082034D0A4F1F6
:102530008040B0F5043008BF10202DD0A4F18040B9
:10254000B0F5053008BF202026D0A4F18040B0F5BA
:10255000063008BF40201FD0A4F18040B0F50730FE
:1025600008BF802018D0A4F18040B0F5083008BF23
:102570004FF4807010D0A4F18040B0F5093008BF4E
:102580004FF4007008D0A4F18040B0F50A300EBFBF
:102590004FF4806002B070BD002A04BF0025AC4635
:1025A0001FD0012A04BF00254FF0010C19D0022AC8
:1025B00004BF00254FF0020C13D0032A08BF0325E7
:1025C0000DD0042A08BF01251DD0052A04BF01250E
:1025D0002E4604D0062A08BF022514D001E04FF091
:1025E000000C8DF804508DF8053000918DF80660D0
:1025F0008DF807C0012100F0B3F869462046FFF7C7
:1026000019FF02B070BD0026E9E70021012804D9B6
:10261000491C400889B20128FAD8C8B270470000A6
:10262000064901EB001000218089012804D9491CCA
:10263000400889B20128FAD8C8B270472C8900082E
:1026400010B4C27801780F244FF0010C0AB3174A76
:10265000126801F1E02102F4E062C2F5E062C2F327
:102660000722C2F10403D44042789A408378234081
:102670001A43120181F80024007800F01F010CFABF
:1026800001F14009800000F1E020C0F8001110BC09
:10269000704701F01F000CFA00F04909890001F1B0
:1026A000E021C1F8800110BC704700000CED00E093
:1026B0002DE9F04180462748174600EB08150E46E5
:1026C000A87B002808BFBDE8F0810621404605F040
:1026D00033F8214A69680024881A914219D00BDC2A
:1026E000B1F1804F12D0A1F18040B0F5806018BFE9
:1026F000B0F5806F0DD00EE0B0F5744F06D0B0F598
:10270000784F14BFB0F59A3F032404E04FF0010462
:1027100001E04FF002044046FFF782FF2B680146BC
:1027200022461846FFF7D3FE0C4906FB07F009685E
:10273000B1FBF0F40021686800F04BFA601E82B231
:10274000701E81B2AB7B686800F0B4FBA87BBDE86B
:10275000F08100002C890008000C00402C000020B3
:10276000044A0029116814BF084321EA00001060E0
:102770007047000030380240044A0029116814BF35
:10278000084321EA00001060704700004038024012
:10279000044A0029116814BF084321EA00001060B0
:1027A0007047000020380240044A0029116814BF15
:1027B000084321EA000010607047000044380240DE
:1027C000044A0029116814BF084321EA0000106080
:1027D0007047000024380240254A30B41168254B68
:1027E00011F00C0106D05C10042908BF046002D06F
:1027F00008291ED0036011680F2303EA11111E4B34
:10280000595CD0F800C02CFA01F14160D2F800C048
:10281000072404EA9C2C13F80CC021FA0CFCC0F825
:1028200008C0126804EA52329A5CD140C16030BCE0
:1028300070471249D1F800C0CCF38055D1F800C0E0
:10284000002D0CF03F0C14BFB4FBFCF3B3FBFCF306
:10285000D1F800C00968CCF3881C03FB0CF3C1F36A
:102860000141491C4900B3FBF1F10160C3E70000DD
:10287000083802400024F4001C0000200438024004
:102880000029018814BF41F0400121F0400101807E
:10289000704710B402880B88B1F802C0CC8843EAB4
:1028A0000C03B1F804C002F441524CEA040C43EAB0
:1028B0000C03B1F808C043EA0C03B1F80AC043EABC
:1028C0000C03B1F80CC043EA0C03B1F80EC043EAA4
:1028D0000C031A430280828B22F400628283098AED
:1028E000018210BC7047000002480168491C016069
:1028F0007047000014000020DFF86CC030B4DCF832
:1029000000001A4B10F00C01194806D05C10042985
:1029100008BF046002D008290CD00360DCF8001066
:10292000144AC1F30311515C026822FA01F10160FB
:1029300030BC704710490A68C2F380550A68002D00
:1029400002F03F0214BFB4FBF2F2B3FBF2F20B68E9
:102950000968C3F388135A43C1F30141491C490074
:10296000B2FBF1F10160D9E7083802400024F4001D
:102970002C0000203000002004380240374882B08C
:10298000016841F4700101603548016841F00101BE
:102990000160344900230B60026822F4102222F007
:1029A0008072026000F1040C2F4ACCF8002002680B
:1029B00022F4802202600A1D1360019300930268D2
:1029C00042F480320260026802F400320092019AFE
:1029D000521C0192009A1AB9019AB2F5A04FF2D195
:1029E000026812F4003F08BF009331D00122009228
:1029F0001E4A136843F0805313601D4A136843F462
:102A0000404313600A680A600A6842F400420A60A0
:102A10000A6842F4A0520A60164ACCF80020026804
:102A200042F080720260026812F0007FFBD0124A0E
:102A300040F205701060086820F003000860086824
:102A400040F002000860086800F00C000828FAD185
:102A50000A494FF00060086002B0704788ED00E05E
:102A6000003802400838024010300024403802404C
:102A700000700040086C4007003C024008ED00E098
:102A800010B5094C0121204600F0B7F8002808BF16
:102A900010BD06480168002918BF8847012120465B
:102AA000BDE8104000F092B800000140840500200D
:102AB00010B50121880700F0A0F8002808BF10BD5C
:102AC00005484068002818BF80470121BDE8104034
:102AD000880700F07BB800008405002010B5094C81
:102AE0000121204600F089F8002808BF10BD0648E3
:102AF0008168002918BF884701212046BDE81040A1
:102B000000F064B8000400408405002010B5094CB2
:102B10000121204600F071F8002808BF10BD0648CA
:102B2000C168002918BF884701212046BDE8104030
:102B300000F04CB8000800408405002010B5094C96
:102B40000121204600F059F8002808BF10BD0648B2
:102B50000169002918BF884701212046BDE81040BF
:102B600000F034B8000C00408405002010B5094C7A
:102B70000121204600F041F8002808BF10BD06489A
:102B80008169002918BF884701212046BDE810400F
:102B900000F01CB8001400408405002010B5094C5A
:102BA0000121204600F029F8002808BF10BD064882
:102BB000C169002918BF884701212046BDE810409F
:102BC00000F004B80004014084050020C9430182DC
:102BD00070470029018814BF41F0010121F0010173
:102BE000018070470029B0F8441014BF41F400413F
:102BF000C1F30E01A0F844107047038A00228089B7
:102C00000B4200EA01001CBF002801221046704759
:102C100010B4028C22F001020284038C8288B0F886
:102C200018C00C882CF0730C44EA0C0C8C8923F02F
:102C3000020323434C882343A0F18044B4F580343D
:102C40001CBFA0F18044B4F582340DD1CC8923F0AF
:102C5000080323438C8823F0040323430C8A22F4C3
:102C6000407222434C8A22438280A0F818C08968AF
:102C70004163038410BC7047028B22F008021143A9
:102C80000183704730B4028C22F010020284038C5E
:102C9000B0F804C0028B0D8822F4E6444FF6FF72B0
:102CA00002EA05252C438D8923F0200302EA05154D
:102CB0002B434D8802EA05152B43A0F18045B5F55D
:102CC00080351CBFA0F18045B5F5823517D1CD897F
:102CD00023F0800302EA05152B438D8823F040037F
:102CE00002EA05152B430D8A2CF4406C02EA850597
:102CF00045EA0C0C4D8A02EA850242EA0C0CA0F867
:102D000004C0048389688163038430BC7047028BEC
:102D10004FF6FF7322F4006203EA0121114301839D
:102D2000704730B4028C22F480720284028C838853
:102D3000B0F81CC00C882CF0730C44EA0C0422F48C
:102D4000007C8D894FF6FF7202EA052545EA0C0CDE
:102D50004D8802EA052545EA0C0CA0F18045B5F541
:102D600080351CBFA0F18045B5F5823517D1CD89DE
:102D70002CF4006C02EA052545EA0C0C8D882CF435
:102D8000806C02EA052545EA0C0C0D8A23F44053B9
:102D900002EA05152B434D8A02EA0512134383808C
:102DA00084838968C163A0F820C030BC7047828BDF
:102DB00022F0080211438183704730B4028C22F460
:102DC00080520284048C8288838B0D8823F4E64C25
:102DD0004FF6FF7303EA052545EA0C0C8D8924F4B0
:102DE000005403EA05352C434D8803EA05352C438E
:102DF000A0F18045B5F580351CBFA0F18045B5F543
:102E0000823505D10D8A22F4804203EA85131A43E4
:102E10008280A0F81CC089680164048430BC7047BB
:102E2000828B4FF6FF7322F4006203EA0121114303
:102E30008183704710B402881C4BDFF874C098423D
:102E400018BF604511D0B0F1804F1CBFA0F1804485
:102E5000B4F5806409D0A0F18044B4F500641CBFCF
:102E6000A0F18044B4F5406403D14C8822F0700294
:102E70002243A0F18044B4F580541CBFA0F18044EB
:102E8000B4F5A05403D00C8922F44072224302808E
:102E90004A68C2620A880285984212BF6045897AF0
:102EA00001864FF00101818210BC70470000014093
:102EB000000401402DE9F0413E4D88B01E46174602
:102EC00088460446A84204D101210846FFF76CFC5D
:102ED0001AE0B4F1804F10D0A4F18040B0F58060CA
:102EE00004BF012102200DD0A4F18040B0F50060A4
:102EF00004BF0121042005D006E001210846FFF7A8
:102F00003BFC01E0FFF738FC0020ADF81470ADF891
:102F10001C00ADF81600CDF8188005A92046FFF773
:102F200089FF7020ADF800000120ADF802000220FA
:102F3000ADF80C00012E06D0022E0DD0032E14D0B9
:102F4000042E1BD022E069462046FFF761FE0821CF
:102F50002046FFF791FE19E069462046FFF792FEF2
:102F600008212046FFF7D3FE10E069462046FFF710
:102F7000D8FE08212046FFF71AFF07E069462046E1
:102F8000FFF71BFF08212046FFF74AFF01212046DB
:102F9000FFF71FFEAC421FBFA4F18040B0F58230A6
:102FA00008B0BDE8F08101212046FFF71BFE08B004
:102FB000BDE8F0810000014010B5124C40F22551EF
:102FC000206900F081F8002808BF10BD206900F0DA
:102FD00015F9C1B2208B628B401C00F07F00824249
:102FE00004D0228B04F11C03D15420836069002893
:102FF00018BF804740F225512069BDE8104000F01D
:1030000053B800005000002010B5124C40F225517A
:10301000206900F059F8002808BF10BD206900F0B1
:10302000EDF8C1B2208B628B401C00F07F00824221
:1030300004D0228B04F11C03D15420836069002842
:1030400018BF804740F225512069BDE8104000F0CC
:103050002BB80000EC00002010B5124C40F22551B6
:10306000206900F031F8002808BF10BD206900F089
:10307000C5F8C1B2208B628B401C00F07F008242F9
:1030800004D0228B04F11C03D154208360690028F2
:1030900018BF804740F225512069BDE8104000F07C
:1030A00003B8000088010020090A012202FA01F198
:1030B000C943018070470029818914BF41F4005140
:1030C00021F400518181704710B401F01F020124E6
:1030D0000023C1F3421C04FA02F2BCF1010F04BF49
:1030E000B0F80CC00CEA020208D0BCF1020F0CBF11
:1030F000B0F810C0B0F814C00CEA0202090A008847
:1031000004FA01F10840002A1CBF002801231846D8
:1031100010BC7047C1F3421301F01F014FF0010CC6
:103120000CFA01F1012B08BF0C3003D0022B0CBFAD
:1031300010301430002A026814BF114322EA010142
:103140000160704730B50446008A85B00D46C988D5
:1031500020F4405008432082A089A9882A8920F4BD
:10316000037011436A8920F4A05010430843A081E2
:10317000A08AA98920F440700843A0826846FFF71E
:103180002BFBA4F18040B0F588301BBFA4F1804038
:10319000B0F58A3003980298A18911F4004F00EB32
:1031A000C00101EB0010296814BF49008900B0FB81
:1031B000F1F0114A6FF0180CA2FB00314909090126
:1031C0000B0903FB0CF300EB8300A38913F4004FFE
:1031D0004FF0320314BF03EBC00003EB0010A2FB5F
:1031E00000204FEA501014BF00F0070000F00F005D
:1031F0000843208105B030BD1F85EB518088C0F3A6
:1032000008007047C1F3080181807047000000008A
:1032100010B52B2201215C4802F0CEFF00281FD000
:103220005AA1654801F0AAFD634801F009FE63A1B7
:10323000614801F03FFD5448007B012821D002285D
:1032400024D0032827D062A15B4801F097FD4E49A6
:10325000012201F1100003F0EBFC002828D11FE04F
:103260005DA1554801F08AFD65A1534801F086FD36
:1032700069A1514801F082FD6E494F4801F07EFD81
:10328000FEE76DA14C4801F079FDE0E76BA14A48EB
:1032900001F074FDDBE76AA1474801F06FFDD6E756
:1032A0003949002201F1100003F0C2FC002864D06B
:1032B00065A1414801F0FEFC684C0A223E48E168E5
:1032C00001F0A1FD66A13C4801F0F4FC21790A223D
:1032D000394801F07BFD67A1374801F0EBFC20790C
:1032E000E1680A224143344801F08DFD324801F083
:1032F000A7FD65A1304801F0DDFC94F820100A22FA
:103300002D4801F063FD2079E1684843440864A139
:10331000294801F0CFFC0A222146274801F073FD1D
:1033200064A1254801F0C6FCA40A0A2221462248CD
:1033300001F069FD64A1204801F0BCFC204604F0C6
:103340001CFD9FED671B53EC112B04F065FD41EC58
:10335000100B0221184801F025FD63A1164801F069
:103360000DFD3E4901F1280002F0D3FC0022BDE82A
:10337000104007216B4801F0AFBF6B490E4801F0C8
:10338000FDFCFEE700000000E005002057697269BF
:103390006E6720697320636F727265637420616E5B
:1033A00064206120636172642069732070726573A8
:1033B000656E742E000000005000002043617264AE
:1033C00020747970653A20202020202020202000C1
:1033D000556E6B6E6F776E00696E697469616C69AA
:1033E0007A6174696F6E206661696C65642E205421
:1033F00068696E677320746F20636865636B3A0059
:103400002A2069732061206361726420696E73658C
:10341000727465643F0000002A20697320796F751B
:103420007220776972696E6720636F727265637468
:103430003F0000009496000853443100534432008A
:103440005344484300000000436C75737465727305
:103450003A2020202020202020202000F0050020DD
:10346000426C6F636B73207820436C757374657264
:103470003A202000546F74616C20426C6F636B7350
:103480003A20202020202000566F6C756D65207436
:103490007970652069733A2020202046415400004D
:1034A000566F6C756D652073697A6520284B6229AB
:1034B0003A202000566F6C756D652073697A65201F
:1034C000284D62293A202000566F6C756D65207377
:1034D000697A6520284762293A2020000000000010
:1034E000000000000000503F0A46696C65732066CA
:1034F0006F756E64206F6E207468652063617264FE
:1035000020286E616D652C206461746520616E6495
:103510002073697A6520696E206279746573293A2F
:103520002000000018060020D89600080146014837
:1035300003F0E2BC000B002010B5B1F9082084B004
:10354000B1F906104FF0000C01248DE81610034667
:1035500062466146074800F0A3F8064801F052F9B8
:10356000054801694969828B00695140416104B095
:1035700010BD0000C00600202C89000810B503A073
:10358000FFF7D4FF044880ED000A10BD42414441DA
:10359000504C452E627600001800002030B589B0EE
:1035A000012516A11C4801F0E9FB2B2200211B4834
:1035B00001F0C0FD20B91AA1174801F0DFFB00257A
:1035C0001EA1154801F0DAFB214C012321A2134969
:1035D000684601F039FD019961600299A160039983
:1035E000E1600D2204A904F11000FDF79FF908988D
:1035F0002062FFF70DFE09B0284630BD0D0A496E66
:10360000697469616C697A696E67205344206361EB
:1036100072642E2E2E00000050000020D0020020E8
:1036200043617264206661696C65642C206F72204E
:103630006E6F742070726573656E7400636172647E
:1036400020696E697469616C697A65642E00000096
:10365000BC0500202F00000010B500210C4802F02E
:1036600031FF002401233C2202210A4800F0C2FF5E
:10367000601CC4B2142CF5D30121064800F063F895
:10368000044801F0BFF805490348486010BD000038
:1036900024020020C006002039350008000B00205D
:1036A0002DE9FF5F0746DDF83880894608F10700FD
:1036B000C11700EB517040F3CF0A38680025DDF8E0
:1036C00044B00169384688470F98002600282DDD50
:1036D0000024B8F1000F20DD14F0070F1CBF6800B4
:1036E000C5B208D1E01704EB5071039800EBE1007C
:1036F00006FB0A00057815F0800F14BF109B5B468F
:1037000009EB040001B23868029AD0F814C03846B8
:10371000E047601C04B24445DEDB701C06B2029830
:10372000401C00B202900F988642D1DB3868816A53
:1037300004B03846BDE8F05F08477047D0F800C0D5
:10374000DCF80CC06047002908BF012101767047F2
:103750002DE9F0410446006882B0154602691E4614
:103760000F46DDF8208020469047A819401E00B281
:10377000CDE9000820683B462A46D0F824C0194607
:103780002046E0472068816A02B02046BDE8F0414B
:10379000084710B582B0DDE9044CCDE9004CD0F803
:1037A00000C0DCF83CC0E04702B010BD08B5DDF851
:1037B00008C0CDF800C0D0F800C0DCF834C0E04745
:1037C00008BDF0B50446C069002283B0002849D086
:1037D0000A297AD00D2942D0037A994224BF90F861
:1037E00009C08C453BD3D0F804C0CB1A0CEBC30501
:1037F000AB7895F803C0002B18BFBCF1000F27D0A1
:1038000094F81AC095F90560BCF1000F11D0B4F915
:10381000107094F818C033441CFB0373B4F90C60A7
:10382000B34206DD2282B4F91220807A1CFB00200C
:103830006082E28A237EA08ACDE900020293B4F975
:1038400010000B460146B4F91220204600F046F85D
:10385000B4F910002979227E11FB0200208203B006
:103860000120F0BD0A292AD00D29F8D0A07E78B118
:10387000207EB4F9103000EB400C03EB4C03B4F99C
:103880000CC0634504DD2282628A02EBC0006082C4
:10389000E28A237EA08ACDE900020293B4F91000E7
:1038A0000B460146B4F91220204600F017F8217E9D
:1038B000208A01EB410100EB4100CFE705E02282C5
:1038C000608A217E00EBC10006E02282B4F912106A
:1038D000227E807A12FB00106082C0E72DE9FF4F44
:1038E0008BB0C169DDE919A4189F1E460546002961
:1038F00048D0087A4A68181AC0B202EBC0000968BA
:103900000A91B0F800A090F802B0C178059190F942
:10391000051000914FF0000890F90660C146CDF8FF
:103920001080CDF80C80012C88BFCDE90361286898
:10393000016928468847002002900598002840F237
:10394000FB800D980C993044089000980844099029
:103950000026BBF1000F40F2E78002990898084466
:1039600000B207900846039908440D9900FB041023
:1039700000B2069019F0070F09F1010101F0FF09EB
:103980007ED1ADE0B5F90C100C988142DCBF0FB0D0
:10399000BDE8F08FB5F90E100D988142DCBF0FB075
:1039A000BDE8F08F04EB44010C9800EB41000128C6
:1039B00044BF0FB0BDE8F08F0D9800EBC4000128A4
:1039C00044BF0FB0BDE8F08FE87E18B9B02E24BF19
:1039D000581CC6B2286801692846884706EB86004D
:1039E0004FF00009CDF80C0000EB09015B48002600
:1039F00010F801800C98484400B202900C9809FB22
:103A000004000FFA80FB00BF18F0010F1AD0012C40
:103A10000DD00D98CDE9004706FB040002B22868DE
:103A200059462346D0F818C02846E0471BE00D98B9
:103A30000299304402B228683B46D0F814C02846A8
:103A4000E04710E0BA450ED0012C31D00D98CDE9F9
:103A5000004A06FB040002B2286859462346D0F803
:103A600018C02846E047701C46B24FEA5808082E96
:103A7000CADB09F101004FFA80F9B9F1050F00E046
:103A800035E0B8BF0398AFDBBA4555D0012C1AD04A
:103A9000E000CDE9000A0C9804EB8401084401B26F
:103AA000286823460D9AD0F818C02846E04743E01E
:103AB0000D980299304402B228685346D0F814C0D9
:103AC0002846E047CFE7CDF800A028680823D0F8C3
:103AD0001CC0DDE90C02401D01B22846E0472BE086
:103AE0000A9810F80A800AF101001FFA80FA18F00B
:103AF000800F10D0012C26D00498CDE90047811901
:103B00000C98069A01FB040001B228682346D0F8FD
:103B100018C02846E0474FEA48604FEA1068701C1A
:103B2000C6B25E45FFF426AF02980599401CC0B2AC
:103B300002908842FFF40CAF2868816A0FB02846D3
:103B4000BDE8F04F08470998079A304401B2286849
:103B50003B46D0F814C02846E047DCE72A8400083A
:103B600070472DE9F843054600680C46DDE90887F3
:103B700001691E469146284688472644A6420CDD28
:103B80000097286843464A46D0F81CC0214628467C
:103B9000E047601C04B2A642F2DC2868816A01B0EA
:103BA0002846BDE8F04308472DE9F84F81460A98BA
:103BB00014460E461D46021BA3EB060148BF5242A7
:103BC0000029B8BF49428A42D8BF4FF0000A06DD3B
:103BD0003146264605464FF0010A0C461846AE42CD
:103BE00005DD31462E460D46214604460846A91BF2
:103BF0000FFA81F8011B48BF49420FFA81FB08EB1D
:103C0000D8714F108442B4BF01204FF0FF300090B4
:103C1000AE42C8BFBDE8F88FBAF1000FD9F8000076
:103C20000B9BD0F814C004D0324621464846E047EA
:103C300003E0224631464846E047A7EB0B0007B2B7
:103C4000002F05DA0098204404B207EB080007B201
:103C5000701C06B2AE42DFDDBDE8F88F0023DFF84E
:103C60002CC0C0E900C30181428189B2818191B237
:103C7000C181437603824382012101764FF6FF72B0
:103C8000C28282828176C376C36170470C95000838
:103C900008B5032300930022012300F001F808BDBA
:103CA0002DE9FF4F04460069DFF82C81A0F1804127
:103CB00087B09146B1F5883175D0A0F18041B1F55A
:103CC00088417DD0A0F18041B1F590411CBF0BB07F
:103CD000BDE8F08F4FF4806701217E00DFF8FC80A3
:103CE0004FF0070B4FF0020A8804FEF745FD272529
:103CF00001215046FEF734FD3846FEF786FC0146AA
:103D00005A464046FEF7E3FB3046FEF77EFC01468E
:103D10005A464046FEF7DBFB47EA060004900320C4
:103D20008DF8150002208DF8140000268DF816601D
:103D300001278DF8177004A94046FEF77BFB8DF82C
:103D400018500A988DF8190014988DF81A008DF8FB
:103D50001B7006A8FEF774FC0898009009F47040E8
:103D6000ADF8040009F47060ADF8060009F0F00049
:103D70000002ADF808000C20ADF80C60ADF80A00A8
:103D800069462069FFF7DEF9012240F225512069DA
:103D9000FFF7C0F901212069FFF78DF90BB0BDE8ED
:103DA000F08F00E00CE04FF400774FF0010A7E0046
:103DB0004FF0070B51461020FEF7F6FC252597E73C
:103DC00008264FF0010A04274FF0070B5146B003B5
:103DD000FEF7D2FC26258BE70000024000040240DB
:103DE00010B500690C46028812F0800FFBD0FFF777
:103DF00009FA204610BD00002DE9F8430446B0F949
:103E00000C00089D98468842C6BFB4F90E00904247
:103E1000BDE8F88302EB08035B1E9842DCBF801A02
:103E20000FFA80F802EB0800401EC0B20090206834
:103E3000CBB2D2B2D0F854C0C9B22046E047A16B91
:103E4000B4F842002F0AEEB20883616BB4F8400068
:103E50004883B8F1010005B216D394F82100394621
:103E6000002808BF802015D0194803F080FA94F884
:103E700021003146002808BF80201AD0144803F0E2
:103E800076FA691E0DB2E8D2616BB4F8400008837F
:103E9000BDE8F883A28FE36A014214BF1A835A83F4
:103EA000E28F236B1A83236BE28F5A834008F1D190
:103EB000DDE7A28FE36A014214BF1A835A83E28FBF
:103EC000236B1A83236BE28F5A834008F1D1D8E722
:103ED0007C0200202DE9F04104461646A26B88467C
:103EE000B0F84200069D1F462A215083626BB4F849
:103EF00040005083204600F033F9616BB4F8400075
:103F00000883A26BB4F8420000211083626BB4F8FE
:103F100040005083204600F023F9616BB4F8400064
:103F2000088394F82900A26B4044C1B2B4F842005F
:103F30001083626BB4F840005083204600F010F903
:103F4000616BB4F840000883A26BB4F84200002112
:103F50001083626BB4F840005083204600F000F9F3
:103F6000616BB4F84000088394F82900A26B3844D0
:103F7000C1B2B4F842001083626BB4F840005083C1
:103F8000204600F0EDF8616BB4F840000883A26BA6
:103F9000B4F842002B215083626BB4F84000508388
:103FA000204600F0DDF8616BB4F840000883A26B96
:103FB000B4F8420000211083626BB4F840005083D3
:103FC000204600F0CDF8616BB4F84000088394F807
:103FD0002A00A26B3044C1B2B4F842001083626B75
:103FE000B4F840005083204600F0BAF8616BB4F892
:103FF00040000883A26BB4F8420000211083626B7A
:10400000B4F840005083204600F0AAF8616BB4F881
:104010004000088394F82A00A26B2844C1B2B4F887
:1040200042001083626BB4F840005083204600F0D9
:1040300097F8616BB4F840000883A26BB4F84200B3
:104040002C215083626BB4F840005083204600F06E
:1040500087F8616BB4F840000883BDE8F081000088
:104060002DE9F8439846DDE90865B0F90C300446BF
:104070008B42C6BFB4F90E009042BDE8F88301EB55
:10408000080CACF1010C6345DCBF5B1A0FFA83F836
:1040900093195B1E8342A4BF801A06B29019401E7A
:1040A000C0B2009001EB0800401EC3B22068D2B23B
:1040B000C9B2D0F854C02046E047A16BB4F8420022
:1040C0002F0A05F0FF090883616BB4F840004883AC
:1040D000002E1EDDB8F1000517DD94F821003946E9
:1040E000002808BF80201AD01C4803F040F994F83B
:1040F00021004946002808BF80201FD0174803F040
:1041000036F9681E05B2002DE7DC701E06B2002EDF
:10411000E0DC616BB4F840000883BDE8F883A28F4F
:10412000E36A014214BF1A835A83E28F236B1A8316
:10413000236BE28F5A834008F1D1D8E7A28FE36A5C
:10414000014214BF1A835A83E28F236B1A83236BB5
:10415000E28F5A834008F1D1D3E700007C020020AF
:1041600090F82120002A08BF802202D00C4803F0DA
:10417000FEB8838FD0F82CC0114214BFACF81830B1
:10418000ACF81A30C38FD0F830C0ACF81830D0F883
:1041900030C0C38FACF81A305208EAD17047000023
:1041A0007C0200200029B8BF704738B50446B0F93A
:1041B0000C001D468842D8BF38BD002AA4BFB4F900
:1041C0000E009042D8BF38BD501CC0B20090481CB1
:1041D000C3B22068D2B2C9B2D0F854C02046E0477A
:1041E000A16BB4F842000883616BB4F840004883C7
:1041F000290A2046FFF7B4FFE9B22046FFF7B0FFD7
:10420000616BB4F84000088338BD000070B51546F6
:104210000E461C4640228021FFF720FD0849016020
:1042200080F8226080F8235080F82440012180F833
:104230002110891E80F8261080F8251070BD00001E
:104240008495000830B4447EDDF808C0BCB1012C70
:1042500004D0022C09D0032C4FD010E00489A21AFC
:10426000521ED21A521C12B24BE00489611A4489C0
:10427000491EA21A521ED21A521C09B212B20029A9
:10428000A4BFB0F908408C42DCBF30BC7047002AA4
:1042900002DA1A4413B20022B0F90A40D518A54236
:1042A000C4BFA31A1BB2002BDCBF30BC7047D4B212
:1042B000DAB2E308283000EBC310084414F0070119
:1042C0007DD0C1F1080396499342C95C04D99C1A78
:1042D000FF2525FA04F42140BCF1000F04BF047847
:1042E00024EA01016CD0BCF1010F6AD0BCF1020FCD
:1042F00004BF0478614063D092E04489611A491E8A
:1043000009B20029A4BFB0F90A408C42DCBF30BC1E
:104310007047002A02DA1A4413B20022B0F90840AA
:10432000D518A542C4BFA31A1BB2002BDCBF30BCFA
:104330007047CC1701EB5474E410283000EBC41024
:10434000104401F00701012202FA01F1C9B2BCF1E7
:10435000000F46D0BCF1010F22D0BCF1020F1CBFF0
:1043600030BC70471A04120C04BF30BC7047401EAA
:1043700012F0010F03D010F8013F4B4003705208B8
:1043800004BF30BC704700BF10F8013F4B4000F83D
:10439000013B03784B400370521EF5D130BC70478F
:1043A0001A04120C04BF30BC7047401E12F0010FFB
:1043B00003D010F8013F0B430370520802E034E0D1
:1043C0002DE028E004BF30BC704700BF10F8013F6B
:1043D0000B4300F8013B03780B430370521EF5D1E9
:1043E000DCE7C943CAB21904090CD7D0401E11F04A
:1043F000010F03D010F8013F134003704908CDD0DE
:1044000010F8013F134000F8013B0378134003709C
:10441000491EF5D1C2E704782143017000E0017024
:104420009A42BBD3D11ACAB28030082A2CD3BCF12D
:10443000020F42D0BCF1010F0CBFFF24002400F892
:10444000804BA2F10801CAB2072A1DD95142CB17ED
:1044500001EB5371C9104D42002D15DDA0F1800113
:1044600015F0010F18BF01F8804F6B1006D000BF88
:1044700001F8804F5B1E01F8804FF9D1694202EBD1
:10448000C10100EBC510CAB2002A87D002F00701B3
:10449000244ABCF1000F515C04BF027822EA0101FA
:1044A00009D0BCF1010F36D0BCF1020F04BF027875
:1044B00051407FF473AF017070E70178C94300F891
:1044C000801BA2F10801CAB2072ADDD95142CB17DD
:1044D00001EB5371C9104C42002CD5DDA0F18001D5
:1044E00014F0010F03D011F8803FDB430B70631011
:1044F0000AD000BF11F8805FED4301F8805B0D78B2
:10450000ED430D705B1EF5D1614202EBC10100EB82
:10451000C410CAB2B8E70278114301703EE7000048
:10452000400000204800002070B5044690F92200A9
:104530000E46B0F1FF3F46D0D4F830040168B4F81D
:104540003C2411430160D4F834040168B4F83E24DB
:1045500091430160D4F830040168B4F83C249143DD
:10456000016094F827003146002808BF80200BD056
:104570001E4802F0FCFE00BFD4F830040168B4F815
:104580003C241143016070BDD4F82C241368B4F8A6
:104590003AC423EA0C031360D4F8282401421368B8
:1045A000B4F838C414BF43EA0C0323EA0C031360C5
:1045B000D4F82C241368B4F83AC443EA0C0313600B
:1045C0004008E1D1D8E7002594F92010084802F00E
:1045D0005FFC2946064802F067FC3146044802F0B9
:1045E00063FCBDE87040024802F040BC7C02002041
:1045F000240200202DE9F04180F82110044680F8C3
:10460000202090F922001F460E46B0F1FF3F4DD00A
:1046100094F82400042103F08FF894F82600042174
:1046200003F08AF894F92600724D05EB001001683A
:104630001431C4F830148089A4F83C0494F924009F
:1046400005EB001001681431C4F834148089A4F813
:104650003E0494F8270010BB94F82200042103F0D4
:104660006BF894F82300042103F066F894F9230012
:1046700005EB001001681431C4F82C148089A4F8EB
:104680003A0494F9220005EB001001681431C4F8D3
:1046900028148089A4F8380494F8270050B1002326
:1046A00001225549554802F09DF803E00021544885
:1046B00001F008FFEFB194F92500002819DB94F808
:1046C0002500042103F038F894F82500012102F0B8
:1046D000FFFF012002F0E6FF94F82500002102F020
:1046E000F7FF0A2002F0DEFF94F82500012102F016
:1046F000EFFFAE212046FFF717FFD5212046FFF739
:1047000013FF80212046FFF70FFFA8212046FFF767
:104710000BFF3F212046FFF707FFD3212046FFF77D
:1047200003FF00212046FFF7FFFE40212046FFF750
:10473000FBFE8D212046FFF7F7FE012E47D0142106
:104740002046FFF7F1FE20212046FFF7EDFE002175
:104750002046FFF7E9FEA1212046FFF7E5FEC8212C
:104760002046FFF7E1FEDA212046FFF7DDFE1221A9
:104770002046FFF7D9FE81212046FFF7D5FE012E06
:104780002AD0CF212046FFF7CFFED9212046FFF7C0
:10479000CBFEF1212046FFF7C7FEDB212046FFF7C5
:1047A000C3FE40212046FFF7BFFEA4212046FFF7AD
:1047B000BBFEA6212046FFF7B7FE2E212046FFF7BD
:1047C000B3FE2046BDE8F041AF21FFF7ADBE10219A
:1047D0002046FFF7A9FEB6E79F212046FFF7A4FE7B
:1047E000D9212046FFF7A0FE22212046FFF79CFE9C
:1047F000D3E700002C89000800127A007C02002018
:104800002402002070B504462121FFF78DFE00210F
:104810002046FFF789FE7F212046FFF785FE2221F3
:104820002046FFF781FE00212046FFF77DFE07218D
:104830002046FFF779FE94F92200B0F1FF3F08BF50
:1048400000254DD0D4F830040168B4F83C2411435D
:104850000160D4F834040168B4F83E2411430160C7
:10486000D4F830040168B4F83C2491430160002579
:10487000601990F8281094F82700002808BF8020BD
:104880000FD0274802F073FD681C85B2B5F5806F24
:10489000EED3D4F830040168B4F83C24114301602D
:1048A00070BDD4F82C241368B4F83AC423EA0C037E
:1048B0001360D4F8282401421368B4F838C414BF34
:1048C00043EA0C0323EA0C031360D4F82C24136886
:1048D000B4F83AC443EA0C0313604008E1D1D3E7CB
:1048E00094F920100F4802F0D3FA40210D4802F04D
:1048F000EEFA0026601990F828100A4802F0D4FA5F
:10490000681C85B2701CC6B2102EF3D305486D1E0C
:1049100002F0ACFA681C85B2B5F5806FE0D370BDCB
:104920007C020020240200200029B8BF70472DE936
:10493000F0411F4614460D46064602F0EBFC854248
:10494000A8BFBDE8F081002CB8BFBDE8F0813046BB
:1049500002F0E3FCA042D8BFBDE8F081304602F08F
:10496000D7FC012804D0022809D0032810D015E074
:10497000204631892C46081A401E05B20EE03089C7
:10498000401B401E05B27089001B401E04B205E0AA
:10499000284671892546081A401E04B201204FB3EB
:1049A000012F15D0022F18BFBDE8F081E11704EBED
:1049B0005171C91005EBC1118A1902F1280192F851
:1049C000282004F00703984050400870BDE8F081AB
:1049D000E11704EB5171C91005EBC1118A1902F1FD
:1049E000280192F8282004F007039840104308702B
:1049F000BDE8F081E11704EB5171C91005EBC1115D
:104A00008A1902F1280192F8282004F0070398403F
:104A100022EA0000D9E700002DE9F0411546DDE962
:104A200006780E461C4640228021FFF717F90849F8
:104A3000016080F8268080F8257080F8244080F896
:104A4000235080F82260002180F82710BDE8F08113
:104A5000E89500087047704710B5044600780421B7
:104A600002F06AFE6078042102F066FEA078BDE8DC
:104A70001040002102F060BE10B40170DFF82CC0BD
:104A800042700CEB011183700C68446089890182CB
:104A90000CEB02110A688260898941820CEB0311D8
:104AA0000A68C2608989818210BC70472C8900081D
:104AB0002DE9F0410E462DED048B82B0B0EE408A18
:104AC000F0EE608A04469FED509B002753EC192BB3
:104AD00051EC180B03F09EFA3CBFB0EE480AF0EE22
:104AE000680A05D351EC180B02F066FE41EC100B7E
:104AF0009FED471B51EC100B53EC112B03F08AFA7E
:104B000053EC192B51EC180B13D803F049F905D2CB
:104B1000226820462D2112689047074620683EA152
:104B2000426820469047384402B0BDEC048BBDE893
:104B3000F08103F035F90BD2226820462D2112684E
:104B40009047074651EC180B02F036FE41EC180B6B
:104B50009FED350B0025002EC8BF9FED359B0ADD6C
:104B600053EC192B51EC100B03F056F941EC100BE0
:104B70006D1CAE42F4DC53EC102B51EC180B02F020
:104B800059FE41EC180B03F0EDFB80460D4603F097
:104B9000A3F853EC182B03F073FA41EC180B0A201E
:104BA000009042462B46204600F0A1F8C51946B3B6
:104BB0002268204620A1526890470544701E9FED50
:104BC000209BC7B253EC192B51EC180B03F024F9BE
:104BD00041EC180B03F03AF806460A21C317324697
:104BE0002046009100F083F80544304603F05DF85C
:104BF00053EC182B03F044FA41EC180B781EC7B2A3
:104C0000E0D2284690E7000000000000000000000D
:104C1000800350726C92DF433C6C61726765206464
:104C20006F75626C653E0000000000000000E03F10
:104C30009A9999999999B93F2E00000000000000B7
:104C400000000000000024402DE9F04190B0002455
:104C500019460546DDF858809446274652EA010079
:104C600018BF6E461DD0424600236046FBF714FC79
:104C700032558446641C0843F5D174B13119284675
:104C800011F8011C0A2934BF30313731C9B202682A
:104C9000126890470744641EF0D110B03846BDE852
:104CA000F0812A68284630211268904710B0012010
:104CB000BDE8F08102685268104702681268104728
:104CC00008B5CB1700920A4600F011F808BD08B5E8
:104CD00032B1D2B200920A460023FFF7B5FF08BDF9
:104CE0000268C9B2126801B05DF804EB1047F8B56C
:104CF0001446069F1D4606468FB1002D07DA02684E
:104D00002D21126890470020644260EB0505F8B23F
:104D1000009022462B463046FFF796FFF8BD3068DC
:104D2000D1B2026801B03046BDE8F040104770B51E
:104D3000064608780C46002548B1C1B23068641CAC
:104D400002683046904720786D1C0028F5D128462F
:104D500070BD0FB4642130B599B004461EAB6846EF
:104D60001D9AFBF711FC22680546204652686946E9
:104D7000904719B0284630BC5DF814FB70B5026846
:104D8000044652689047054620680D210268204677
:104D90009047064620680A210268204690478119FC
:104DA000481970BD70B50446C9B2FFF781FE0546CB
:104DB00020680D21026820469047064620680A2197
:104DC0000268204690478119481970BDF8B504461D
:104DD000A2B1D2B200920A460023FFF735FF054682
:104DE00020680D21026820469047064620680A2167
:104DF00002682046904730442844F8BD0268C9B292
:104E000012689047EBE7F8B50446A2B1D2B200921F
:104E10000A460023FFF718FF054620680D210268A7
:104E200020469047064620680A210268204690479F
:104E300030442844F8BD0268C9B212689047EBE7D5
:104E400070B5026804460D21126890472268054635
:104E5000204612680A219047284470BD006A002845
:104E600008BF704700F02CBD10B50446006A00284A
:104E700008BF10BD00F0F8FD206AFBF78AFA002099
:104E8000206210BD10B50446006A50B10023436093
:104E9000206A03689B689847216A4968002908BF0F
:104EA00010BD01206060002010BD13B50168012213
:104EB000CB6901A9984702B010BD006A002808BF5D
:104EC0007047C1690069081AB0F5004F28BF47F65E
:104ED000FF7070472DE9F05F044600264FF47A70AA
:104EE000C4E901600D48206017460D462820FBF7F5
:104EF00021FA206270B195E80E1F80E80E1FD5E9F7
:104F00000812C0E908120C22394604F11000FBF720
:104F100088FD26772046BDE8F09F000074960008C3
:104F200000214FF47A72C0E90112024A0260016264
:104F30000174704774960008006A00281EBF407A0A
:104F400000280120704700002DE9FF4F99B04FF075
:104F50000008DFF8F090CDE90098CDE90A98044602
:104F60008DF809801646DFF8D8A08DF831806846A4
:104F7000103100F0CEFEB3466D460AAF2F215846E1
:104F8000FBF75BFC002835D030782F2808BF761C53
:104F90002AD02F213046FBF750FC58B32F21304642
:104FA000FBF74BFC801B00F0FF08B8F10C0F88BF2B
:104FB0004FF00C084246314614A8FBF732FD14A905
:104FC000002001F80800384600F04EFD012314AA25
:104FD0002946384600F03CFB50B34644284600F0D2
:104FE00043FD28463D4607462F213046FBF725FC6A
:104FF0000028C9D11C98A6EB0B010160C4F800A0E1
:105000006868C4E90090287A2072687A6072E8685B
:10501000E0602869206168696061287E2076E8691F
:10502000E061286A2062686A60621DB0BDE8F08FA6
:105030000020C4E9009060721DB0BDE8F08F000050
:105040003C96000850960008F0B5A9B01F460646E9
:10505000144628AB14A8FFF777FF28982518334C7F
:105060002878B0B10020CDE91E408DF881009DF870
:10507000590000282FD03B462A4614A91EA800F04C
:10508000E7FA40B314A800F0EFFC0620B84327D09D
:105090002AE015986946CDE900409DF858008DF842
:1050A00008009DF859008DF809001798039018988A
:1050B0000490199805909DF868008DF818001B98C9
:1050C00007901C9808901D98099019A23046FFF788
:1050D00001FF29B0F0BD3046FFF722FF29B0F0BD37
:1050E0001EA8259900F0DEFD1F980AA9CDE90A4007
:1050F0009DF880008DF830009DF881008DF831001A
:1051000021980D9022980E9023980F909DF8900072
:105110008DF84000259811902698129027981390AA
:105120002A463046FFF7D6FE29B0F0BD509600085B
:105130002F00000070B5044690F8410016460D4659
:1051400000281CBF04F1380000F08EFC324601211B
:10515000204601F031F8E0B12946204601F018F868
:10516000B8B10122214604F1100001F061FD30B90F
:105170000022214604F1100001F05AFD48B104F16B
:10518000100104F1380000F0C4FD00281CBF01200C
:1051900070BD002070BD0000F0B40725002284B06F
:1051A000202351FA82F2137001224FF0050C00BF48
:1051B00051FA82F42370521C51FA82F4521C23706B
:1051C000BCF1010CF4D110F8012B002432B32E2ACB
:1051D0002CD01BA393E8C8108DE8C8109DF800C020
:1051E0000DF10103BCF1000F06D0944523D013F854
:1051F00001CBBCF1000FF8D1A54228BF212A1AD358
:105200007E2A18D8A2F161031A2B38BF203A0A551A
:10521000621CD4B210F8012B002AD8D108782028BB
:105220001FBF012004B0F0BC704704E00A2D1CBF72
:105230000A250824EED104B00020F0BC704700001D
:105240007C3C3E5E2B3D3F2F5B5D3B2C2A225C006D
:1052500070B504461E48154600EB4110C27A12F0A4
:10526000110F18BF15F0420F11D1217619490968A5
:105270006161818A09042162428B11432162C27AF1
:1052800012F0180F05D002F01800102816D00020D8
:1052900070BDC069E0610120607205F00F002072EE
:1052A0000020E06015F0400F206104BF012070BDB8
:1052B00000212046BDE8704000F054BD04F11C02FE
:1052C000606A02F095F8002818BF0420E4D170BD90
:1052D00044030020080000202DE9F04F8FB0002586
:1052E000C56081460561407A17468B4602283CBF5F
:1052F0000FB0BDE8F08F48460122694600F0E0FAA1
:1053000001281CBF0FB0BDE8F08F9DF800000028F9
:10531000BCBF0FB0BDE8F08FD9F81000C84C00F149
:105320001F02C848C9F810200D90B81CA2460C9066
:105330002078002804BF0FB0BDE8F08FE52818BF23
:105340002E2800F05381E07A10F0080F40F04E81D3
:105350004FF00005002F07DD2021BB48FFF7ADFC13
:10536000681C45B2AF42F7DC1BF0030F14BF4FF0CF
:105370000E084FF0000800252E46A05D20280DD015
:10538000082E05D12E21B048FFF797FC681CC5B246
:10539000A15DAD48FEF724FD681CC5B2701CC6B205
:1053A0000B2EEAD3E07A00F01800102805D12F2147
:1053B000A548FFF782FC681CC5B2454507D22021ED
:1053C000A148FFF77AFC681CC5B24545F7D31BF02E
:1053D000010F7CD0268B40F2BC7000EB56210A22D4
:1053E0009948FFF76DFC2D219748FFF766FCC6F33F
:1053F0004310CD2110FB01F1C90A3031934D8DF8D6
:105400000010A5FB0021C908494201EB810100EB16
:10541000410030308DF801004FF000088DF8028017
:1054200069468948FFF746FC2D218748FFF745FC70
:1054300006F01F00CD2110FB01F1C90A30318DF8B3
:105440000010A5FB0021C908494201EB810100EBD6
:10545000410030308DF801008DF8028069467A48AD
:10546000FFF728FC20217848FFF727FCE68AF00A9E
:10547000CD2110FB01F1C90A30318DF80010A5FBD8
:105480000021C908494201EB810100EB41003030A5
:105490008DF801008DF8028069466B48FFF70AFC21
:1054A0003A216948FFF709FCC6F34510CD2110FBEE
:1054B00001F1C90A30318DF80010A5FB0021C9089F
:1054C000494201EB810100EB4100303000E025E072
:1054D0008DF801008DF8028069465B48FFF7EAFB12
:1054E0003A215948FFF7E9FBF006800ECD2110FB69
:1054F00001F1C90A30318DF80010A5FB0021C9085F
:10550000494201EB810100EB410030308DF8010090
:105510008DF8028069464C48FFF7CCFBE07A00F03A
:105520001800102818BF1BF0020F09D04FF02001FF
:105530004548FFF7C2FBE1690A224348FFF7C7FB72
:105540004148FFF77DFC1BF0040F4FD0E07A00F0DC
:10555000180010284AD1D9F810104FF0FF3000EB96
:10556000511085B2002003908DF811000D9902A80A
:105570000291019001200090D9F8240069010B905C
:105580004C460E46484600F08DFB50B3607A022828
:1055900027D3208A0122C0F343180EA9204600F029
:1055A0008FF901281DD19DF83800002819DB2069EA
:1055B0001F3020611AEB48101CBF0078002810D063
:1055C000E52818BF2E280CD0DDE9002005F00F01DA
:1055D000FFF73EFE28B10C985946C2B202A8FFF769
:1055E0007BFE06F12001484600F05CFB99F80900BB
:1055F00002283CBF0FB0BDE8F08FB9F810000122BF
:10560000C0F343144846694600F05AF901281CBF0C
:105610000FB0BDE8F08F9DF800000028BCBF0FB0B0
:10562000BDE8F08FD9F810001AEB441400F11F0107
:10563000C9F810107FF47CAE0FB0BDE8F08F000009
:10564000440300205096000850000020CDCCCCCC64
:105650002DE9F04F0746407A89B098460E4600285B
:1056600040F00881072368464FF0000C202150FAD3
:105670008CFC8CF800104FF0010C052450FA8CF5CE
:1056800029700CF1010C50FA8CF52970641E0CF194
:10569000010CF3D1002112F801CB8946BCF1000FB7
:1056A0002DD000BFBCF12E0F49D0814C0DF1100E52
:1056B00094E8300C8EE8300C9DF810500DF1110478
:1056C00035B1654500F0D68014F8015B002DF8D1A6
:1056D0008B4228BFBCF1210F71D3BCF17E0F6ED875
:1056E000ACF161041A2C38BFACF1200C00F801C0F9
:1056F000491CC9B212F801CBBCF1000FD2D100781D
:1057000020285CD0706A7862C6F80C90C6F81090B9
:105710001220F1694FF0000A20EA080B00294FD946
:10572000308AC0F34314707A022848D325463046A5
:10573000012203A900F0C4F8012840D105E00A2B9A
:105740001CBF0A230821D5D194E09DF80C00002845
:1057500035DB306900F11F015648316110EB45110E
:105760002DD00878002818BFE52806D04FF00B028E
:105770006846FBF76CF898B10AE0BAF1000F05D162
:105780004D483C764FF0010A00687861087818B1FE
:10579000F16930698842C3D3BBF1000F6AD113E0CD
:1057A000302030EA080004BF09B0BDE8F08F42465F
:1057B00021463846FFF74CFD09B0BDE8F08F49E0BF
:1057C000BBF1000F56D10DE0BAF1000F0AD0012154
:1057D000786901F051F9E8B3397E364810EB41148D
:1057E00048D02FE0707A022844D006F10C02012143
:1057F000706A01F099F968B3306A28B9F1683162CA
:10580000307A40F080013172706AF168027C891E42
:105810009140426904798D1844B12819401E01F065
:105820005DF9B8B1601E10F0FF04F6D1716A4FF453
:105830000072F069097C1F4C02FA01F10844F06122
:1058400087F8189020212046FBF7A2F800982060E6
:10585000019800E00EE06060BDF8080020819DF82E
:105860000A00A0721548026842B104F10E01881CBA
:10587000904709E009B00020BDE8F08F42F6210012
:1058800020824FF40060E081208A60822083E089DA
:10589000E08201F0D3F8002804BF09B0BDE8F08F22
:1058A000397E42463846FFF7D3FC09B0BDE8F08F99
:1058B000405200084403002008000020000000209F
:1058C0002DE9F84F0446407A90460F4600281CBF49
:1058D000207A10F0010F7DD02169E069A0EB010072
:1058E000404538BF1FFA80F85FEA08061CBFDFF8A2
:1058F0000091DFF800A172D02069617AC0F3080B33
:10590000022909D0636A1979491E01EA5021CDB2F2
:105910005BEA050105D011E0616A496A01EB50209C
:1059200014E0002804BF206AE06007D004F10C02F4
:105930001846E16801F02AFD002854D0606AE16849
:10594000027C891E91404069294408443546CBF5C4
:105950000071A942B8BF0D46217A11F0400F02D163
:10596000B5F5007F10D1D9F8001088420CD001465F
:1059700000972B465A46DAF8000000F0FBFC00289E
:1059800018BF2F442FD020E0002101F075F808B394
:105990001948584441190B1A002B16DD411E781E78
:1059A00013F0010F03D011F8012F00F8012F5A1046
:1059B0000AD000BF91F801C080F801C011F802CFF1
:1059C00000F802CF521EF5D11F44206928442061FF
:1059D000701B01E007E002E00604360C8CD10FFAE0
:1059E00088F0BDE8F88F4FF0FF30BDE8F88F000079
:1059F00008000020100000204403002070B5044679
:105A0000407A002808BF70BD207A10F0800F20D0A7
:105A10000121606901F030F8F8B1207E104911EBE6
:105A200040151AD0607A02283CBFE069E861208CFA
:105A30006883206A000CA8820A4802682AB105F12E
:105A40001601881C9047288B6882207A20F08000FD
:105A50002072BDE8704000F0F1BF002070BD000072
:105A6000440300200000002010B50446FFF7C6FFE5
:105A7000002808BF10BD00206072012010BD70B565
:105A800004460D460846FAF732FF236802462946C7
:105A90009B682046BDE87040184700002DE9F84F8C
:105AA0000446407A0E4690461746012840F0E080B2
:105AB000207A10F0020F00F0DB8010F0040F09D004
:105AC000E1692069884205D0204600F0EBF8002803
:105AD00000F0CE80002F14BFDFF8A091206972D0B3
